{
    "_format": "hh-sol-artifact-1",
    "contractName": "WhitelistedAddress",
    "sourceName": "contracts/Whitelist.sol",
    "abi": [
        {
            "inputs": [
                {
                    "internalType": "uint8",
                    "name": "_maxWhitelistedAddresses",
                    "type": "uint8"
                }
            ],
            "stateMutability": "nonpayable",
            "type": "constructor"
        },
        {
            "inputs": [],
            "name": "addWhitelistAddress",
            "outputs": [],
            "stateMutability": "nonpayable",
            "type": "function"
        },
        {
            "inputs": [],
            "name": "maxWhitelistedAddresses",
            "outputs": [
                {
                    "internalType": "uint8",
                    "name": "",
                    "type": "uint8"
                }
            ],
            "stateMutability": "view",
            "type": "function"
        },
        {
            "inputs": [],
            "name": "numAddressesWhitelisted",
            "outputs": [
                {
                    "internalType": "uint256",
                    "name": "",
                    "type": "uint256"
                }
            ],
            "stateMutability": "view",
            "type": "function"
        },
        {
            "inputs": [
                {
                    "internalType": "address",
                    "name": "",
                    "type": "address"
                }
            ],
            "name": "whitelistedAddresses",
            "outputs": [
                {
                    "internalType": "bool",
                    "name": "",
                    "type": "bool"
                }
            ],
            "stateMutability": "view",
            "type": "function"
        }
    ],
    "bytecode": "0x608060405234801561001057600080fd5b5060405161061538038061061583398181016040528101906100329190610067565b806000806101000a81548160ff021916908360ff160217905550506100b4565b6000815190506100618161009d565b92915050565b60006020828403121561007957600080fd5b600061008784828501610052565b91505092915050565b600060ff82169050919050565b6100a681610090565b81146100b157600080fd5b50565b610552806100c36000396000f3fe608060405234801561001057600080fd5b506004361061004c5760003560e01c806306c933d81461005157806331a72188146100815780634011d7cd1461009f578063aa1e559e146100bd575b600080fd5b61006b60048036038101906100669190610267565b6100c7565b6040516100789190610389565b60405180910390f35b6100896100e7565b60405161009691906103ff565b60405180910390f35b6100a76100f8565b6040516100b491906103e4565b60405180910390f35b6100c56100fe565b005b60016020528060005260406000206000915054906101000a900460ff1681565b60008054906101000a900460ff1681565b60025481565b600160003373ffffffffffffffffffffffffffffffffffffffff1673ffffffffffffffffffffffffffffffffffffffff16815260200190815260200160002060009054906101000a900460ff161561018b576040517f08c379a0000000000000000000000000000000000000000000000000000000008152600401610182906103a4565b60405180910390fd5b60008054906101000a900460ff1660ff16600254106101df576040517f08c379a00000000000000000000000000000000000000000000000000000000081526004016101d6906103c4565b60405180910390fd5b60018060003373ffffffffffffffffffffffffffffffffffffffff1673ffffffffffffffffffffffffffffffffffffffff16815260200190815260200160002060006101000a81548160ff021916908315150217905550600160026000828254610249919061042b565b92505081905550565b60008135905061026181610505565b92915050565b60006020828403121561027957600080fd5b600061028784828501610252565b91505092915050565b61029981610493565b82525050565b60006102ac60278361041a565b91507f5468652073656e6465722068617320616c7265616479206265656e207768697460008301527f656c6973746564000000000000000000000000000000000000000000000000006020830152604082019050919050565b600061031260338361041a565b91507f57686974656c6973746564206164647265737365732068617320616c7265616460008301527f79207265616368656420697473206c696d6974000000000000000000000000006020830152604082019050919050565b610374816104bf565b82525050565b610383816104c9565b82525050565b600060208201905061039e6000830184610290565b92915050565b600060208201905081810360008301526103bd8161029f565b9050919050565b600060208201905081810360008301526103dd81610305565b9050919050565b60006020820190506103f9600083018461036b565b92915050565b6000602082019050610414600083018461037a565b92915050565b600082825260208201905092915050565b6000610436826104bf565b9150610441836104bf565b9250827fffffffffffffffffffffffffffffffffffffffffffffffffffffffffffffffff03821115610476576104756104d6565b5b828201905092915050565b600061048c8261049f565b9050919050565b60008115159050919050565b600073ffffffffffffffffffffffffffffffffffffffff82169050919050565b6000819050919050565b600060ff82169050919050565b7f4e487b7100000000000000000000000000000000000000000000000000000000600052601160045260246000fd5b61050e81610481565b811461051957600080fd5b5056fea2646970667358221220a8ca260dbab66e2d6950f54d171355bac2d2dca8cb25178e28e8ccfb76ab80f664736f6c63430008000033",
    "linkReferences": {},
    "deployedLinkReferences": {}
}